:100000000A128A11FC2F00308A000408840A820731
:0E0010000034483465346C346C346F34003482
:100E44000A128A1128270A128A110800831603132A
:100E54008801091189100A128A11A9270A128A1114
:100E64000800F500F00174080A128A1161270A12B9
:100E74008A11F001F00A75080A128A1161270A1210
:100E84008A1108000A128A1122270A128A1185304F
:100E9400F7007708F40034300A128A1133270A1253
:100EA4008A11C230F7007708F40001300A128A115F
:100EB40081270A128A11492F0A128A110028F30085
:100EC4007018652F692F8312031309156C2F831271
:100ED40003130911730888008914A630F100F10B7B
:100EE400712F00008312031389101B30F2009E300F
:100EF400F100F10B7B2FF20B7B2F00000800F600B2
:100F0400F00174080A128A1161270A128A119C2FAF
:100F1400F001F00A760884000A128A1103200A12EA
:100F24008A110A128A1161270A128A110130F50006
:100F34007508F607760884000A128A1103200A123B
:100F44008A11003A031DA72FA82F8A2F0800C33047
:100F5400F500CD30F400F40BAD2FF50BAD2FF001FF
:100F640033300A128A1161270A128A111B30F500E4
:100F74009E30F400F40BBC2FF50BBC2F0000F001E5
:100F840033300A128A1161270A128A11A630F4003A
:100F9400F40BCA2F0000F00133300A128A116127C2
:100FA4000A128A11D52FD62F0000F00138300A1208
:100FB4008A1161270A128A11A630F400F40BE02F7B
:100FC4000000F00101300A128A1161270A128A1105
:100FD400A630F400F40BEC2F0000F0010C300A12E0
:100FE4008A1161270A128A11A630F400F40BF82F33
:0C0FF4000000080083010A128A11442F3B
:08400000FF3FFF3FFF3FFF3FC0
:02400E00FB3F76
:00000001FF
