:060000000A128A11F62F1E
:100F020001348316031306083F3886000800831253
:100F1200031388018316031388010A128A11822798
:100F22000A128A110800F1007108031D992F9A2FE5
:100F32009F2F8312031306083F39BD2F3F308312C0
:100F420003130605F0003F3070060319A92FAA2FDC
:100F5200B12F76080319AE2FAF2FB12FF6019A2FBA
:100F62003F300605F0003F307006031DB92FBA2F3F
:100F7200BC2FF601F60A3F3008000A128A118827B0
:100F82000A128A1101300A128A1194270A128A114E
:100F9200F2007208F50037307506031DD12FD22FEB
:100FA200E82F01308312031388065030F300C33058
:100FB200F4000130F3020030031CF403F402730A5C
:100FC200031DE72F740A031DE72FE82FDA2F3F30A6
:100FD20075060319ED2FEE2FC32F75088312031325
:100FE2008800C32F0A128A1100280A128A11812747
:0E0FF2000A128A11F60083010A128A11BE2F1C
:08400000FF3FFF3FFF3FFF3FC0
:02400E00FB3F76
:00000001FF
