:060000000A128A11FC2F18
:100F840083160313860183120313860108000A12D1
:100F94008A11C2270A128A110F30831203138600A2
:100FA400F001F1010130F0070318F10A0030F107F4
:100FB400C3307102503003197002031CE22FE32F77
:100FC400D42FF030831203138600F001F1010130B5
:100FD400F0070318F10A0030F107C33071025030F2
:100FE40003197002031CF72FF82FE92FCE2F0A12D2
:0C0FF4008A11002883010A128A11C92FFB
:08400000FF3FFF3FFF3FFF3FC0
:02400E00FB3F76
:00000001FF
