:060000000A128A11FC2F18
:100F72008316031388018312031388018316031354
:100F8200061408000A128A11B9270A128A1183125A
:100F920003130618CD2FCE2FC82F0130880600303C
:100FA200F3000030F2000030F1000030F0000130B8
:100FB200F007003003180130F10700300318013048
:100FC200F207003003180130F3077308031DF82FEE
:100FD2007208031DF82FC3307102031DF42F503025
:100FE2007002031DF42F031CF72FF82FD82FC82FE0
:0E0FF2000A128A11002883010A128A11C32FE5
:08400000FF3FFF3FFF3FFF3FC0
:02400E00FB3F76
:00000001FF
